{"abi":[{"type":"constructor","inputs":[{"name":"_name","type":"string","internalType":"string"},{"name":"_description","type":"string","internalType":"string"},{"name":"_goal","type":"uint256","internalType":"uint256"}],"stateMutability":"nonpayable"},{"type":"function","name":"description","inputs":[],"outputs":[{"name":"","type":"string","internalType":"string"}],"stateMutability":"view"},{"type":"function","name":"donations","inputs":[{"name":"","type":"uint256","internalType":"uint256"}],"outputs":[{"name":"donor","type":"address","internalType":"address"},{"name":"amount","type":"uint256","internalType":"uint256"}],"stateMutability":"view"},{"type":"function","name":"donorCount","inputs":[],"outputs":[{"name":"","type":"uint256","internalType":"uint256"}],"stateMutability":"view"},{"type":"function","name":"donors","inputs":[{"name":"index","type":"uint256","internalType":"uint256"}],"outputs":[{"name":"donor","type":"address","internalType":"address"},{"name":"amount","type":"uint256","internalType":"uint256"}],"stateMutability":"view"},{"type":"function","name":"fund","inputs":[],"outputs":[],"stateMutability":"payable"},{"type":"function","name":"goal","inputs":[],"outputs":[{"name":"","type":"uint256","internalType":"uint256"}],"stateMutability":"view"},{"type":"function","name":"owner","inputs":[],"outputs":[{"name":"","type":"address","internalType":"address"}],"stateMutability":"view"},{"type":"function","name":"projectName","inputs":[],"outputs":[{"name":"","type":"string","internalType":"string"}],"stateMutability":"view"},{"type":"function","name":"refund","inputs":[],"outputs":[],"stateMutability":"nonpayable"},{"type":"function","name":"totalFunds","inputs":[],"outputs":[{"name":"","type":"uint256","internalType":"uint256"}],"stateMutability":"view"},{"type":"function","name":"withdraw","inputs":[],"outputs":[],"stateMutability":"nonpayable"}],"bytecode":{"object":"0x608060405234801561000f575f5ffd5b5060405161131838038061131883398181016040528101906100319190610226565b825f908161003f91906104b5565b50816001908161004f91906104b5565b50806002819055503360045f6101000a81548173ffffffffffffffffffffffffffffffffffffffff021916908373ffffffffffffffffffffffffffffffffffffffff1602179055505f600381905550505050610584565b5f604051905090565b5f5ffd5b5f5ffd5b5f5ffd5b5f5ffd5b5f601f19601f8301169050919050565b7f4e487b71000000000000000000000000000000000000000000000000000000005f52604160045260245ffd5b610105826100bf565b810181811067ffffffffffffffff82111715610124576101236100cf565b5b80604052505050565b5f6101366100a6565b905061014282826100fc565b919050565b5f67ffffffffffffffff821115610161576101606100cf565b5b61016a826100bf565b9050602081019050919050565b8281835e5f83830152505050565b5f61019761019284610147565b61012d565b9050828152602081018484840111156101b3576101b26100bb565b5b6101be848285610177565b509392505050565b5f82601f8301126101da576101d96100b7565b5b81516101ea848260208601610185565b91505092915050565b5f819050919050565b610205816101f3565b811461020f575f5ffd5b50565b5f81519050610220816101fc565b92915050565b5f5f5f6060848603121561023d5761023c6100af565b5b5f84015167ffffffffffffffff81111561025a576102596100b3565b5b610266868287016101c6565b935050602084015167ffffffffffffffff811115610287576102866100b3565b5b610293868287016101c6565b92505060406102a486828701610212565b9150509250925092565b5f81519050919050565b7f4e487b71000000000000000000000000000000000000000000000000000000005f52602260045260245ffd5b5f60028204905060018216806102fc57607f821691505b60208210810361030f5761030e6102b8565b5b50919050565b5f819050815f5260205f209050919050565b5f6020601f8301049050919050565b5f82821b905092915050565b5f600883026103717fffffffffffffffffffffffffffffffffffffffffffffffffffffffffffffffff82610336565b61037b8683610336565b95508019841693508086168417925050509392505050565b5f819050919050565b5f6103b66103b16103ac846101f3565b610393565b6101f3565b9050919050565b5f819050919050565b6103cf8361039c565b6103e36103db826103bd565b848454610342565b825550505050565b5f5f905090565b6103fa6103eb565b6104058184846103c6565b505050565b5b818110156104285761041d5f826103f2565b60018101905061040b565b5050565b601f82111561046d5761043e81610315565b61044784610327565b81016020851015610456578190505b61046a61046285610327565b83018261040a565b50505b505050565b5f82821c905092915050565b5f61048d5f1984600802610472565b1980831691505092915050565b5f6104a5838361047e565b9150826002028217905092915050565b6104be826102ae565b67ffffffffffffffff8111156104d7576104d66100cf565b5b6104e182546102e5565b6104ec82828561042c565b5f60209050601f83116001811461051d575f841561050b578287015190505b610515858261049a565b86555061057c565b601f19841661052b86610315565b5f5b828110156105525784890151825560018201915060208501945060208101905061052d565b8683101561056f578489015161056b601f89168261047e565b8355505b6001600288020188555050505b505050505050565b610d87806105915f395ff3fe60806040526004361061009b575f3560e01c80638da5cb5b116100635780638da5cb5b1461015c578063968ed600146101865780639a33e300146101b0578063b60d4288146101da578063c407670f146101e4578063f8626af81461020e5761009b565b80633ccfd60b1461009f57806340193883146100b55780634abfa163146100df578063590e1ae31461011c5780637284e41614610132575b5f5ffd5b3480156100aa575f5ffd5b506100b361024b565b005b3480156100c0575f5ffd5b506100c9610393565b6040516100d691906108ab565b60405180910390f35b3480156100ea575f5ffd5b50610105600480360381019061010091906108f2565b610399565b60405161011392919061095c565b60405180910390f35b348015610127575f5ffd5b506101306103f0565b005b34801561013d575f5ffd5b506101466105f8565b60405161015391906109f3565b60405180910390f35b348015610167575f5ffd5b50610170610684565b60405161017d9190610a13565b60405180910390f35b348015610191575f5ffd5b5061019a6106a9565b6040516101a791906108ab565b60405180910390f35b3480156101bb575f5ffd5b506101c46106af565b6040516101d191906109f3565b60405180910390f35b6101e261073a565b005b3480156101ef575f5ffd5b506101f8610839565b60405161020591906108ab565b60405180910390f35b348015610219575f5ffd5b50610234600480360381019061022f91906108f2565b610845565b60405161024292919061095c565b60405180910390f35b60045f9054906101000a900473ffffffffffffffffffffffffffffffffffffffff1673ffffffffffffffffffffffffffffffffffffffff163373ffffffffffffffffffffffffffffffffffffffff16146102da576040517f08c379a00000000000000000000000000000000000000000000000000000000081526004016102d190610a76565b60405180910390fd5b5f6003541161031e576040517f08c379a000000000000000000000000000000000000000000000000000000000815260040161031590610ade565b60405180910390fd5b5f60035490505f60038190555060045f9054906101000a900473ffffffffffffffffffffffffffffffffffffffff1673ffffffffffffffffffffffffffffffffffffffff166108fc8290811502906040515f60405180830381858888f1935050505015801561038f573d5f5f3e3d5ffd5b5050565b60025481565b5f5f5f600584815481106103b0576103af610afc565b5b905f5260205f2090600202019050805f015f9054906101000a900473ffffffffffffffffffffffffffffffffffffffff1681600101549250925050915091565b60025460035410610436576040517f08c379a000000000000000000000000000000000000000000000000000000000815260040161042d90610b73565b60405180910390fd5b5f5f90505f5f90505b600580549050811015610556573373ffffffffffffffffffffffffffffffffffffffff166005828154811061047757610476610afc565b5b905f5260205f2090600202015f015f9054906101000a900473ffffffffffffffffffffffffffffffffffffffff1673ffffffffffffffffffffffffffffffffffffffff161480156104ea57505f600582815481106104d8576104d7610afc565b5b905f5260205f20906002020160010154115b15610549576005818154811061050357610502610afc565b5b905f5260205f209060020201600101548261051e9190610bbe565b91505f6005828154811061053557610534610afc565b5b905f5260205f209060020201600101819055505b808060010191505061043f565b505f8111610599576040517f08c379a000000000000000000000000000000000000000000000000000000000815260040161059090610c3b565b60405180910390fd5b3373ffffffffffffffffffffffffffffffffffffffff166108fc8290811502906040515f60405180830381858888f193505050501580156105dc573d5f5f3e3d5ffd5b508060035f8282546105ee9190610c59565b9250508190555050565b6001805461060590610cb9565b80601f016020809104026020016040519081016040528092919081815260200182805461063190610cb9565b801561067c5780601f106106535761010080835404028352916020019161067c565b820191905f5260205f20905b81548152906001019060200180831161065f57829003601f168201915b505050505081565b60045f9054906101000a900473ffffffffffffffffffffffffffffffffffffffff1681565b60035481565b5f80546106bb90610cb9565b80601f01602080910402602001604051908101604052809291908181526020018280546106e790610cb9565b80156107325780601f1061070957610100808354040283529160200191610732565b820191905f5260205f20905b81548152906001019060200180831161071557829003601f168201915b505050505081565b5f341161077c576040517f08c379a000000000000000000000000000000000000000000000000000000000815260040161077390610d33565b60405180910390fd5b3460035f82825461078d9190610bbe565b92505081905550600560405180604001604052803373ffffffffffffffffffffffffffffffffffffffff16815260200134815250908060018154018082558091505060019003905f5260205f2090600202015f909190919091505f820151815f015f6101000a81548173ffffffffffffffffffffffffffffffffffffffff021916908373ffffffffffffffffffffffffffffffffffffffff160217905550602082015181600101555050565b5f600580549050905090565b60058181548110610854575f80fd5b905f5260205f2090600202015f91509050805f015f9054906101000a900473ffffffffffffffffffffffffffffffffffffffff16908060010154905082565b5f819050919050565b6108a581610893565b82525050565b5f6020820190506108be5f83018461089c565b92915050565b5f5ffd5b6108d181610893565b81146108db575f5ffd5b50565b5f813590506108ec816108c8565b92915050565b5f60208284031215610907576109066108c4565b5b5f610914848285016108de565b91505092915050565b5f73ffffffffffffffffffffffffffffffffffffffff82169050919050565b5f6109468261091d565b9050919050565b6109568161093c565b82525050565b5f60408201905061096f5f83018561094d565b61097c602083018461089c565b9392505050565b5f81519050919050565b5f82825260208201905092915050565b8281835e5f83830152505050565b5f601f19601f8301169050919050565b5f6109c582610983565b6109cf818561098d565b93506109df81856020860161099d565b6109e8816109ab565b840191505092915050565b5f6020820190508181035f830152610a0b81846109bb565b905092915050565b5f602082019050610a265f83018461094d565b92915050565b7f4f6e6c79206f776e65722063616e2077697468647261770000000000000000005f82015250565b5f610a6060178361098d565b9150610a6b82610a2c565b602082019050919050565b5f6020820190508181035f830152610a8d81610a54565b9050919050565b7f4e6f2066756e647320746f2077697468647261770000000000000000000000005f82015250565b5f610ac860148361098d565b9150610ad382610a94565b602082019050919050565b5f6020820190508181035f830152610af581610abc565b9050919050565b7f4e487b71000000000000000000000000000000000000000000000000000000005f52603260045260245ffd5b7f476f616c20726561636865642c2063616e6e6f7420726566756e6400000000005f82015250565b5f610b5d601b8361098d565b9150610b6882610b29565b602082019050919050565b5f6020820190508181035f830152610b8a81610b51565b9050919050565b7f4e487b71000000000000000000000000000000000000000000000000000000005f52601160045260245ffd5b5f610bc882610893565b9150610bd383610893565b9250828201905080821115610beb57610bea610b91565b5b92915050565b7f4e6f2066756e647320746f20726566756e6400000000000000000000000000005f82015250565b5f610c2560128361098d565b9150610c3082610bf1565b602082019050919050565b5f6020820190508181035f830152610c5281610c19565b9050919050565b5f610c6382610893565b9150610c6e83610893565b9250828203905081811115610c8657610c85610b91565b5b92915050565b7f4e487b71000000000000000000000000000000000000000000000000000000005f52602260045260245ffd5b5f6002820490506001821680610cd057607f821691505b602082108103610ce357610ce2610c8c565b5b50919050565b7f446f6e617465206d6f7265207468616e203000000000000000000000000000005f82015250565b5f610d1d60128361098d565b9150610d2882610ce9565b602082019050919050565b5f6020820190508181035f830152610d4a81610d11565b905091905056fea2646970667358221220a4b431e01d5f1c843993696c6fbe41265968b0dcbc931feb53f4fc553ca2f25364736f6c634300081e0033","linkReferences":{}},"methodIdentifiers":{"description()":"7284e416","donations(uint256)":"f8626af8","donorCount()":"c407670f","donors(uint256)":"4abfa163","fund()":"b60d4288","goal()":"40193883","owner()":"8da5cb5b","projectName()":"9a33e300","refund()":"590e1ae3","totalFunds()":"968ed600","withdraw()":"3ccfd60b"},"id":16}